:1000000012C02AC029C028C027C026C025C0E3C00E
:1000100023C022C021C020C01FC01EC01DC01CC0E4
:100020001BC01AC019C011241FBECFEDCDBF10E0F8
:10003000A0E6B0E0E0EDF2E002C005900D92A2363D
:10004000B107D9F720E0A2E6B0E001C01D92AE36BC
:10005000B207E1F7E4D03AC1D3CF9B01AC011BB8A2
:1000600060EA75E286E290E0F3D0BA01A90141505E
:10007000510961097109DB01CA011AF40196A11D38
:10008000B11DB595A79597958795292F332722B947
:1000900089B98AB188698AB98AB18A7F8AB908958B
:1000A000FC01DC01A60FB71F20E07CE8AE17BF07FC
:1000B00089F0419138E0522F5427822F90E0959596
:1000C0008795282F50FF02C0272F282746953150AB
:1000D00091F7ECCF822F0895CF93909165009330E4
:1000E00051F48F3429F4109265001092660071C0AB
:1000F0001092650012C0923031F4843591F493E08F
:100100009093650016C090916500913031F48F3462
:1001100041F492E0909365000CC0909165009111BC
:1001200008C08D3421F491E09093650002C01092D4
:10013000650090916600973028F4E92FF0E0E959C6
:10014000FF4F8083973009F03FC0C82F67E070E011
:1001500087E690E0A5DF80936400C81335C08091E6
:100160006A00833589F580916B00843569F580914B
:100170006C00803549F580916D00823529F58091BC
:10018000670091E0811101C090E09093630091E0DD
:1001900020916800211101C090E09093620090913D
:1001A000690090936000882311F0C19801C0C19A42
:1001B00080916200882311F0C29801C0C29A809198
:1001C000600090E09BBD8ABD809166008F5F809348
:1001D0006600CF9108951F920F920FB60F921124CF
:1001E0002F933F934F935F936F937F938F939F933F
:1001F000AF93BF93EF93FF938CB16EDFFF91EF91BD
:10020000BF91AF919F918F917F916F915F914F912E
:100210003F912F910F900FBE0F901F901895B99A94
:10022000BA9ABB9AC19AC298C398789460E072EC6B
:1002300081E090E012DF8EB58B608EBD8FB580645B
:100240008FBD1DBC1CBC8EE690E09BBD8ABDFFCF60
:10025000052E97FB16F400940FD057FD05D014D04F
:1002600007FC02D046F408C0509540953095219582
:100270003F4F4F4F5F4F08959095809570956195D2
:100280007F4F8F4F9F4F0895A1E21A2EAA1BBB1BD1
:10029000FD010DC0AA1FBB1FEE1FFF1FA217B30752
:1002A000E407F50720F0A21BB30BE40BF50B661F68
:1002B000771F881F991F1A9469F76095709580952C
:1002C00090959B01AC01BD01CF010895F894FFCF3B
:0202D000960096
:00000001FF
