:1000000012C01FC01EC01DC01CC01BC01AC019C01A
:1000100018C017C016C015C014C013C012C011C03C
:1000200010C00FC00EC011241FBECFEDCDBF20E009
:10003000A0E6B0E001C01D92A83DB207E1F702D0F2
:100040005BC2DECF7EE1AAE0BFEF48ED50E020E6E4
:1000500030E0CA01C0E0E0E6F0E060E0C61304C0B2
:10006000A183B083A28303C07183A08372836F5F77
:100070003396683299F7B99A18B31D7FD8B3D26016
:10008000FFB6F894E0E6F0E0619108E0D8BB00002C
:1000900000C000C067FF18BB660F000000C000C0B2
:1000A00000C000C018BB000000C00A9579F74E17C9
:1000B0005F0751F7FFBEEBEDF5E03197F1F700C0B8
:1000C0000000FFE76AE1E6E0F1506040E040E1F760
:1000D00000C00000CF5FC83209F0BDCFFFE764E881
:1000E000EEE1F1506040E040E1F700C0000060E068
:1000F000F90161836083628333968E179F07C9F786
:10010000B99A18B31D7FD8B3D260FFB6F894F9013D
:10011000C19108E0D8BB000000C000C0C7FF18BBF9
:10012000CC0F000000C000C000C000C018BB000021
:1001300000C00A9579F78E179F0751F7FFBEEBEDC8
:10014000F5E03197F1F700C00000EFE4F3EC3197F0
:10015000F1F700C000006F5F6F3F09F0C9CFFFE704
:1001600064E8EEE1F1506040E040E1F700C00000DB
:100170006FEFF90161836083628333968E179F0767
:10018000C9F7B99A18B31D7FD8B3D260FFB6F894F7
:10019000F901C19108E0D8BB000000C000C0C7FF52
:1001A00018BBCC0F000000C000C000C000C018BBCE
:1001B000000000C00A9579F78E179F0751F7FFBE20
:1001C000EBEDF5E03197F1F700C00000EFE4F3EC60
:1001D0003197F1F700C00000615009F0CACFFFE786
:1001E00064E8EEE1F1506040E040E1F700C000005B
:1001F00060E0F90161831082128233968E179F07A7
:10020000C9F7B99A18B31D7FD8B3D260FFB6F89476
:10021000F901C19108E0D8BB000000C000C0C7FFD1
:1002200018BBCC0F000000C000C000C000C018BB4D
:10023000000000C00A9579F78E179F0751F7FFBE9F
:10024000EBEDF5E03197F1F700C00000EFE4F3ECDF
:100250003197F1F700C000006F5F6F3F09F0C9CF21
:10026000FFE764E8EEE1F1506040E040E1F700C0F4
:1002700000006FEFF90161831082128233968E17AE
:100280009F07C9F7B99A18B31D7FD8B3D260FFB6DC
:10029000F894F901C19108E0D8BB000000C000C08B
:1002A000C7FF18BBCC0F000000C000C000C000C0DA
:1002B00018BB000000C00A9579F78E179F0751F709
:1002C000FFBEEBEDF5E03197F1F700C00000EFE481
:1002D000F3EC3197F1F700C00000615009F0CACF8C
:1002E000FFE764E8EEE1F1506040E040E1F700C074
:1002F000000060E0F90111826083128233968E174C
:100300009F07C9F7B99A18B31D7FD8B3D260FFB65B
:10031000F894F901C19108E0D8BB000000C000C00A
:10032000C7FF18BBCC0F000000C000C000C000C059
:1003300018BB000000C00A9579F78E179F0751F788
:10034000FFBEEBEDF5E03197F1F700C00000EFE400
:10035000F3EC3197F1F700C000006F5F6F3F09F0D9
:10036000C9CFFFE764E8EEE1F1506040E040E1F71B
:1003700000C000006FEFF901118260831282339692
:100380008E179F07C9F7B99A18B31D7FD8B3D260EB
:10039000FFB6F894F901C19108E0D8BB000000C095
:1003A00000C0C7FF18BBCC0F000000C000C000C0D9
:1003B00000C018BB000000C00A9579F78E179F0790
:1003C00051F7FFBEEBEDF5E03197F1F700C000000B
:1003D000EFE4F3EC3197F1F700C00000615009F051
:1003E000CACFFFE764E8EEE1F1506040E040E1F79A
:1003F00000C0000060E0F901118210826283339630
:100400008E179F07C9F7B99A18B31D7FD8B3D2606A
:10041000FFB6F894F901C19108E0D8BB000000C014
:1004200000C0C7FF18BBCC0F000000C000C000C058
:1004300000C018BB000000C00A9579F78E179F070F
:1004400051F7FFBEEBEDF5E03197F1F700C000008A
:10045000EFE4F3EC3197F1F700C000006F5F6F3FFE
:1004600009F0C9CFFFE764E8EEE1F1506040E040F9
:10047000E1F700C000006FEFF90111821082628382
:1004800033968E179F07C9F7B99A18B31D7FD8B353
:10049000D260FFB6F894F901C19108E0D8BB000022
:1004A00000C000C0C7FF18BBCC0F000000C000C0D8
:1004B00000C000C018BB000000C00A9579F7E8171B
:1004C000F90751F7FFBEEBEDF5E03197F1F700C00A
:1004D0000000EFE4F3EC3197F1F700C00000615049
:1004E00009F0CACFFFE764E8EEE1F1506040E04078
:0C04F000E1F700C00000AECDF894FFCF93
:00000001FF
