S00E00005352323031392E73726563A5
S113000019C028C027C026C025C024C023C022C0D0
S113001021C020C01FC01EC01DC01CC01BC01AC0F0
S113002019C018C0B2C016C015C014C013C012C085
S113003011C010C011241FBECFEFD4E0DEBFCDBF6E
S113004022E0A0E0B1E001C01D92AF3FB207E1F7AA
S1130050C1D03EC1D5CF9B01AC011092C00060EA73
S113006075E286E290E0F6D0CA01B90161507109E7
S11300708109910922E030E040E050E0EBD0832F89
S113008099278093C5002093C400E1ECF0E08081BF
S11300908869808380818A7F80830895CF93DF93EA
S11300A090910101933039F410920101893319F4CC
S11300B01092020167C090910101923041F48133A2
S11300C021F493E09093010102C0109201019091F8
S11300D00101913041F4823521F492E090930101C1
S11300E002C01092010190910101911108C0833561
S11300F021F491E09093010102C01092010120913A
S113010002012C3F70F4E091FD0291E0E9279DEF9C
S1130110E99FF0011124ED5FFE4FE20FF11D808392
S11301202EC02C3F61F53091FD0291E039279DEFFF
S1130130399FF0011124ED5FFE4FDF01A450BF4F42
S113014090E0CCE8AE17BF0789F0719168E0D72F33
S1130150D927492F50E055954795942FD0FF02C0D9
S11301609C2F94277695615091F7ECCF90930001E2
S1130170891305C03093FD0281E08093FE022F5F56
S113018020930201DF91CF9108951F920F920FB631
S11301900F9211242F933F934F935F936F937F9309
S11301A08F939F93AF93BF93EF93FF938091C60078
S11301B075DFFF91EF91BF91AF919F918F917F91E7
S11301C06F915F914F913F912F910F900FBE0F90C0
S11301D01F90189560E072EC81E090E03CDF789429
S11301E02DEFF8948091FE02813009F031C0E09146
S11301F0FD022E9FF0011124ED5FFE4F209A95B170
S11302009E7F85B181603FB7F894BF0164507F4FF2
S1130210E617F707A1F0419158E085B9000000C046
S113022000C047FF95B9440F000000C000C000C0E3
S113023000C095B9000000C05A9579F7E9CF3FBFD7
S113024089EF90E00197F1F700C000001092FE02E0
S11302507894C7CF052E97FB16F400940FD057FD62
S113026005D014D007FC02D046F408C05095409540
S1130270309521953F4F4F4F5F4F0895909580954E
S1130280709561957F4F8F4F9F4F0895A1E21A2E6D
S1130290AA1BBB1BFD010DC0AA1FBB1FEE1FFF1F26
S11302A0A217B307E407F50720F0A21BB30BE40B76
S11302B0F50B661F771F881F991F1A9469F76095BD
S11302C07095809590959B01AC01BD01CF01089577
S10702D0F894FFCFCC
S9030000FC
