S01300005352323031395F6D61696E2E737265639C
S113000019C028C027C026C025C024C023C022C0D0
S113001021C020C01FC01EC01DC01CC01BC01AC0F0
S113002019C018C0B4C016C015C014C013C012C083
S113003011C010C011241FBECFEFD4E0DEBFCDBF6E
S113004022E0A0E0B1E001C01D92AF3FB207E1F7AA
S1130050C3D06CC1D5CF9B01AC011092C00060EA43
S113006075E286E290E024D1BA01A9014150510918
S113007061097109DB01CA011AF40196A11DB11DC0
S1130080B595A79597958795292F33272093C50074
S11300908093C400E1ECF0E08081886980838081F2
S11300A08A7F80830895CF93DF93909101019330E9
S11300B051F4893329F4109201011092020164C0B1
S11300C01092010112C0923031F4813391F493E023
S11300D09093010116C090910101913031F4823561
S11300E041F492E0909301010CC0909101019111AF
S11300F008C0833521F491E09093010102C010926D
S11301000101A0910201AC3F68F4E091FD0291E08D
S1130110E9279DEFE99FF0011124ED5FFE4FEA0FFF
S1130120F11D8083AC3F69F5B091FD0291E0B927E0
S11301309DEFB99FF0011124ED5FFE4FEF01C45014
S1130140DF4F90E07CE803C0CE17DF0789F05191C0
S113015048E0692F6527292F30E035952795922FA0
S113016060FF02C0972F92275695415091F7ECCF2C
S113017090930001891305C0B093FD0281E0809340
S1130180FE02AF5FA0930201DF91CF9108951F9209
S11301900F920FB60F9211242F933F934F935F93B7
S11301A06F937F938F939F93AF93BF93EF93FF933B
S11301B08091C60078DFFF91EF91BF91AF919F913D
S11301C08F917F916F915F914F913F912F910F90FC
S11301D00FBE0F901F901895CF93DF9300D01F92FE
S11301E0CDB7DEB78FEF8A8319821B8260E072EC91
S11301F081E090E030DF7894AE014C5F5F4FBDEF5B
S1130200F8948091FE02813009F050C0229A25B101
S11302102B7F95B194606FB7F894FE01319681916C
S113022038E095B9000000C000C087FF25B9880FE9
S1130230000000C000C000C000C025B9000000C01C
S11302403A9579F74E175F0751F76FBF2091FD027A
S1130250B29F900111242D5F3E4F229A65B16B7FAE
S113026095B19460AFB7F894F90124503F4F819150
S113027078E095B9000000C000C087FF65B9880F19
S1130280000000C000C000C000C065B9000000C08C
S11302907A9579F72E173F0751F7AFBF8BED95E0AD
S11302A00197F1F700C000001092FE027894A8CFE5
S11302B0052E97FB16F400940FD057FD05D014D0EB
S11302C007FC02D046F408C050954095309521951E
S11302D03F4F4F4F5F4F089590958095709561956E
S11302E07F4F8F4F9F4F0895A1E21A2EAA1BBB1B6D
S11302F0FD010DC0AA1FBB1FEE1FFF1FA217B307EE
S1130300E407F50720F0A21BB30BE40BF50B661F03
S1130310771F881F991F1A9469F7609570958095C7
S113032090959B01AC01BD01CF010895F894FFCFD6
S9030000FC
